:020000040800F2
:1000000080060020092F0008552F0008572F0008F0
:1000100000000000000000000000000000000000E0
:10002000000000000000000000000000592F000840
:1000300000000000000000005B2F0008753F000872
:100040005F2F0008612F0008632F0008652F00084C
:10005000672F0008692F0008713700086D2F00080E
:10006000000000006F2F0008712F00080000000042
:100070009D390008752F0008772F00080000000048
:10008000792F00087B2F0008000000001D3A0008AF
:10009000000000007F2F0008FD360008832F0008B5
:1000A00000000000852F0008872F0008A5310008F8
:1000B0008B2F0008000000008D2F000800000000BA
:1000C0000448054B10B5834203D0044B002B00D0ED
:1000D000984710BD7400002074000020000000004C
:1000E00006480749091A8B10C90FC91810B54910DD
:1000F00003D0044B002B00D0984710BD74000020A3
:10010000740000200000000010B5074C2378002B7D
:1001100009D1FFF7D5FF054B002B02D0044800E0C2
:1001200000BF0123237010BD7400002000000000F8
:10013000A83F0008054B10B5002B03D00449054823
:1001400000E000BFFFF7CCFF10BDC046000000007C
:1001500078000020A83F0008002243088B4274D397
:1001600003098B425FD3030A8B4244D3030B8B42B8
:1001700028D3030C8B420DD3FF22090212BA030CC1
:100180008B4202D31212090265D0030B8B4219D3A2
:1001900000E0090AC30B8B4201D3CB03C01A5241C2
:1001A000830B8B4201D38B03C01A5241430B8B420A
:1001B00001D34B03C01A5241030B8B4201D30B03F3
:1001C000C01A5241C30A8B4201D3CB02C01A52411A
:1001D000830A8B4201D38B02C01A5241430A8B42DD
:1001E00001D34B02C01A5241030A8B4201D30B02C6
:1001F000C01A5241CDD2C3098B4201D3CB01C01AE0
:10020000524183098B4201D38B01C01A52414309E9
:100210008B4201D34B01C01A524103098B4201D3D7
:100220000B01C01A5241C3088B4201D3CB00C01A44
:10023000524183088B4201D38B00C01A52414308BC
:100240008B4201D34B00C01A5241411A00D20146E1
:10025000524110467047FFE701B5002000F0F0F86A
:1002600002BDC0460029F7D076E7704703460B432E
:100270007FD4002243088B4274D303098B425FD39F
:10028000030A8B4244D3030B8B4228D3030C8B42CB
:100290000DD3FF22090212BA030C8B4202D31212B1
:1002A000090265D0030B8B4219D300E0090AC30B86
:1002B0008B4201D3CB03C01A5241830B8B4201D333
:1002C0008B03C01A5241430B8B4201D34B03C01A1C
:1002D0005241030B8B4201D30B03C01A5241C30A94
:1002E0008B4201D3CB02C01A5241830A8B4201D305
:1002F0008B02C01A5241430A8B4201D34B02C01AEF
:100300005241030A8B4201D30B02C01A5241CDD293
:10031000C3098B4201D3CB01C01A524183098B42DE
:1003200001D38B01C01A524143098B4201D34B01C7
:10033000C01A524103098B4201D30B01C01A52412A
:10034000C3088B4201D3CB00C01A524183088B42B1
:1003500001D38B00C01A524143088B4201D34B009A
:10036000C01A5241411A00D201465241104670470C
:100370005DE0CA0F00D04942031000D34042534011
:1003800000229C4603098B422DD3030A8B4212D3D1
:10039000FC22890112BA030A8B420CD38901921103
:1003A0008B4208D3890192118B4204D389013AD040
:1003B000921100E08909C3098B4201D3CB01C01A15
:1003C000524183098B4201D38B01C01A5241430928
:1003D0008B4201D34B01C01A524103098B4201D316
:1003E0000B01C01A5241C3088B4201D3CB00C01A83
:1003F000524183088B4201D38B00C01A5241D9D29B
:1004000043088B4201D34B00C01A5241411A00D21B
:100410000146634652415B10104601D34042002B17
:1004200000D54942704763465B1000D3404201B596
:10043000002000F005F802BD0029F8D016E770474B
:100440007047C046844608006146FFE71FB500F0CC
:100450006FFB002801D40021C8421FBD10B500F079
:10046000F5FA4042013010BD10B500F061FB0028E4
:1004700001DB002010BD012010BDC04610B500F00A
:1004800057FB002801DD002010BD012010BDC04633
:1004900010B500F003FB002801DC002010BD012096
:1004A00010BDC04610B500F0F9FA002801DA0020AE
:1004B00010BD012010BDC0469E2110B5C905041C09
:1004C000FFF7F0FF002803D1201C00F07FFE10BDD5
:1004D0009E21201CC90500F0B3FC00F077FE8023AC
:1004E0001B069C466044F2E7F0B5C64643025B0A31
:1004F0009C461F00DE004B025A0A450090464A0007
:100500002D0E120EC40F00B5C90F9B09A81A8C42FC
:1005100021D000280DDD002A2DD1002B00D195E03F
:10052000421E012800D131E1FF2800D194E01000E3
:1005300027E0002862D0501B002D00D0E1E0002E03
:1005400000D181E0441E012800D142E1FF2800D102
:1005500019E12000DAE0002800DC9CE0002A69D0E4
:10056000FF2D00D178E08022D20413431B2800DC49
:100570007DE001362AE0FF2D00D16DE08022D2041B
:10058000134301221B2807DC2021091A1A008B4083
:10059000C240591E8B411A43B61A730100D477E04A
:1005A000B601B709380000F07BFE05388740854268
:1005B00000DD82E020223B00401B0130121A3E0089
:1005C0009340C6405A1E934100251E43730704D032
:1005D0000F233340042B00D00436730137D5681C39
:1005E000FE2D52D08E4BC0B233409B015F0AC00536
:1005F0003843E407204380BCB846F0BDFE206A1CA7
:10060000104274D1002D00D0AAE0002E00D1DAE013
:100610000020002BEBD08022F71AD204174200D121
:10062000ECE09B1B134200D1F2E07D4A0C0013402A
:100630000130DAE7002B09D0421E012800D196E0F4
:10064000FF2809D0100091E70C001E000500F308F8
:100650009C46FF2D00D091E06346002B15D08027EB
:100660006346FF031F437F02FF207F0ABFE720216D
:10067000091A1A008B40C240591E8B411343F618C9
:10068000730105D50135FF2D54D1FF200027AEE7BA
:1006900073079DD1DBE7002813D0501B002D50D1EC
:1006A000002ED2D0411E012840D0FF286CD0080077
:1006B0001B286EDD15005E1C88E7594E2D1A3E4042
:1006C00084E7FE216A1C114241D1002D6CD1002E1D
:1006D00000D190E00020002B00D188E7F318DF085C
:1006E0007F027F0A5B0100D481E701207FE7F71AD0
:1006F0007A0132D4002F00D054E7002400200027D4
:1007000075E7FF2A3FD08024E404264301241B28F8
:1007100008DC35001F34241AA640C540741EA641CB
:100720002C0034431E1B15000C0036E7F61802356A
:10073000730120D501233B4A3340760816401E43FF
:1007400044E7FF2A20D08021C9040E43B0E7FF2AE6
:100750009BD0F6181500760838E70C009F1B21E7A0
:10076000002E3AD1002B4ED0C4460C0077E7F61885
:1007700002257301DED4F3089C46012563465F021F
:100780007F0AE8B233E70C00C44665E70125F61A94
:1007900003E731002025C140281A8640701E86419B
:1007A0000E431500F6186BE7002EEDD0002B00D19C
:1007B00055E78023DB039C4500D250E7984500D3E2
:1007C0004DE7C4464BE7002B97D00C00474600206E
:1007D0000DE70C009E1B0135DFE6002B00D13EE744
:1007E0008023DB039C4500D239E7984500D336E7E8
:1007F0000C00C44633E747460020F8E6002F0BD034
:10080000BF017F0AF3E680270024FF20FF03EEE606
:100810009B010C005F0AEAE600240027E7E6C046D9
:10082000FFFFFFFBFFFFFF7DF0B546464F46D64674
:100830004502C0B5C30F470098460E1C6D0A3F0E17
:1008400057D0FF2F21D08023ED00DB041D43002370
:1008500099469A467F3F74027300640A1B0EF60F96
:10086000002B20D0FF2B4CD080220020E400D204AB
:1008700014437F3B4246FF1A4B4672400F2B00D970
:10088000ACE06F499B00CB589F46002D5BD10823FD
:100890009946063B74029A467300FF27640A1B0EB2
:1008A000F60F002BDED1002C30D101234246494601
:1008B000724019430E2904D86248890041588F4676
:1008C0004246FF200024C0052043D2071043E0BC6D
:1008D000BA46B146A846F0BD5346022BF0D0032BD2
:1008E00000D1A3E042462C00012B35D1002000248A
:1008F000E9E7002D1BD104239946033B00279A46C4
:10090000A9E7002C0CD10223FF3FCFE7200000F025
:10091000C7FC431F9C4076235B421B1A0020A9E7BB
:1009200003234A461A4391460320FC33A2E72800DA
:1009300000F0B6FC7627431F9D4000237F42994676
:100940009A463F1A87E70C239946093BFF279A46A8
:1009500081E703286CD0320038007F30002825DD85
:10096000630704D00F232340042B00D00434230159
:1009700003D53800344B80301C40FE28A1DCA40194
:10098000640AC0B29FE780240022FF20E4039AE7B4
:100990008023DB031D4201D01C424BD08024E403A2
:1009A0002C4364024246FF20640A8CE701231B1A91
:1009B0001B2B9BDC21009E37D940BC400B00611EE5
:1009C0008C412343590704D00F211940042900D03A
:1009D0000433590126D50120002474E76D0160011C
:1009E000854213D21B230024013F01262900640005
:1009F0006D00002901DBA84201D82D1A3443013BC8
:100A0000002BF3D16B1E9D412C43A5E71A23012433
:100A10002D1AEAE7981E4342584140423200002412
:100A2000C0B250E79B0100205C0A4CE746462C0010
:100A30008023DB031C4364023200FF20640A42E788
:100A4000C03F000800400008FFFFFFF770B54200FC
:100A50004E024C0045026D0A120EC30F760A240E98
:100A6000C90FFF2A10D0FF2C0CD00120A2420AD1BE
:100A7000B54208D18B420FD0002A04D12800431E72
:100A8000984100E0012070BD0120FF2CFBD13543CF
:100A9000F9D14B401800F6E70020F4E730B54200EA
:100AA00044024D02C30F4800640A120E6D0A000E84
:100AB000C90FFF2A17D0FF280AD0002A1BD100280F
:100AC0000AD1002D24D0002C2ED14800013830BD91
:100AD000002D26D1002A01D1002CF6D08B4206D160
:100AE00058000138F3E7002C1BD1FF2813D0012058
:100AF0005B421843EBE70028F9D08B42F7D18242E2
:100B0000F5DCEDDBAC42F2D80020AC42DFD2E7E707
:100B1000002CDCD0EBE7002D03D18B42E7D1002085
:100B2000D5E702204042D2E78B42EBD0DFE7C04658
:100B300030B5420044024D02C30F4800640A120E51
:100B40006D0A000EC90FFF2A18D0FF280DD0002A09
:100B50001CD100280DD1002D27D0002C0BD08B42AA
:100B60001BD001205B4218430FE0002D0CD1002A5E
:100B70001ED1002C1CD14800013806E0002C03D106
:100B8000FF28EED1002D16D0022030BD0028E8D07D
:100B90008B42E6D18242E4DC04DBAC42E1D80020A7
:100BA000AC42F2D258000138EFE7002CEDD0D8E784
:100BB0008B42D6D1F6E700208B42E6D0D1E7C04683
:100BC000F0B54F464646D6464502C0B546000F1C16
:100BD0006D0A360EC40F002E00D1C3E0FF2E77D071
:100BE0008023ED00DB041D43002399469A467F3E97
:100BF0007B025B0A98467B001B0EFF0F002B77D011
:100C0000FF2B00D194E042468021D200C904114359
:100C1000884600217F3BF6184B46721C0A2B73DC7A
:100C20004B467C40022B00DCA7E048460123834072
:100C3000A620C000034267D190208000034200D06C
:100C4000ECE0B938FF38184200D0DAE04146090438
:100C5000090C43460F00280C2D041B0C2D0C6F4370
:100C600041435D4358436D183B0C5B19994203D9CE
:100C7000802149028C4660443F0419043F0CC91985
:100C80008D016F1EBD411B0C890E1B180D439B016E
:100C90001D431B0100D4C6E0012369081D400D431C
:100CA00010007F30002800DC94E06B0704D00F2395
:100CB0002B40042B00D004352B0103D580321000CB
:100CC0005E4B1D40FE2855DCAB015B0AC0B226E03E
:100CD000002D00D078E008239946063B9A467B0217
:100CE0005B0A98467B00FF261B0EFF0F002B87D167
:100CF0004346002B56D14A4601331A4391464B4690
:100D00000121721C0A2B8BDD5346022B32D0032BA0
:100D100000D17CE05346012BC2D100200023C00546
:100D20001843E4072043E0BCBA46B146A846F0BDEC
:100D300033004246FF33002A3FD003224946114385
:100D4000721C8946FF320A2973DD0F295DD1802389
:100D5000DB031D425BD042461A4258D13C00FF20C3
:100D60001343DCE7002D11D104239946033B0026F1
:100D70009A463DE7FF200023D1E7013B012B00D934
:100D800064E70229F6D045468A46C3E7280000F00A
:100D900087FA7626431F9D400023764299469A465D
:100DA000361A25E7404600F07BFA4246431F9A4038
:100DB000361A90460021763E2EE74946023211430C
:100DC00089461E00022127E70C239946093BFF268E
:100DD0009A460DE701231B1A1B2B9EDC9E3229002D
:100DE0009540D9406A1E95410D436B0704D00F23EF
:100DF0002B40042B00D004356B0116D501200023B5
:100E00008DE73C0045468A467EE73C004546802308
:100E1000DB032B435B02FF205B0A80E78023002477
:100E2000FF20DB037BE732003AE7AB0100205B0ADF
:100E300075E71E0003217C40F7E6C046FFFFFFF781
:100E4000F0B546464F46D64643025B0AC0B59C46BF
:100E50001F00DE004B025A0A904645004A002D0E44
:100E6000C40F120EC90F9B09FF2A26D00120414052
:100E7000A81A8C4210D0002800DC8AE1002A48D150
:100E8000002B00D1AEE0421E012800D13FE1FF2837
:100E900000D1ADE0100041E0002800DC86E1002A2E
:100EA00000D182E0FF2D00D1A2E08022D2041343C2
:100EB0001B2800DC83E0013654E02800FF3882461E
:100EC000002B69D1012041408C4200D1D8E050462E
:100ED000002800D19AE00C00002D00D07DE0FF201A
:100EE000002E00D17CE0471E012800D12CE10C002F
:100EF000FF2800D109E101211B2F07DC2020C01BA6
:100F000031008640F940701E8641314315005E1A5B
:100F100010E0FF2D6CD08022D204134301221B2845
:100F200007DC2021091A1A008B40C240591E8B4150
:100F30001A43B61A730166D5B601B709380000F036
:100F4000AFF905388740854200DD7AE020223B007A
:100F5000401B0130121A3E009340C6405A1E934176
:100F600000251E43730704D00F233340042B00D009
:100F70000436730137D5681CFE2D2ED0914BC0B2BC
:100F800033409B015F0AC0053843E4072043E0BCBF
:100F9000BA46B146A846F0BD8C4260D0002835D094
:100FA000002D9CD00C00C44622E0002B1AD0421E1B
:100FB000012800D19DE0FF281AD0100078E72021F9
:100FC000091A1A008B40C240591E8B411343F61870
:100FD000730118D50135FF2D6AD1FF200027D2E714
:100FE0000C001E000500F3089C46FF2D00D087E092
:100FF0006346002BF1D080276346FF031F437F0227
:10100000FF207F0ABFE77307AED1ECE7FE206A1C22
:1010100010421AD1002D63D1002E00D198E000209B
:10102000002BB0D08022F71AD204174200D1A8E0DA
:1010300001249B1B0C401342A3D0624A0130134091
:101040009FE7604E2D1A3E408CE7F71A7A0143D491
:10105000002F00D072E700240020002793E700282B
:1010600011D0002D51D1FF20002EBAD0411E0128F1
:101070003FD0FF2849D01B294CDD15005E1C71E7CD
:10108000514600291BD1FE216A1C11421ED1002DA0
:101090004BD1002E72D00020002B00D173E7F31843
:1010A000DF087F027F0A5B0100D46CE701206AE75A
:1010B0000123454A3340760816401E4352E7002D6F
:1010C000D1D08AE7FE216A1C0A42E2D0FF2A84D0EE
:1010D000F6181500760845E701249F1B0C402DE704
:1010E000002E3CD1002B45D180270024FF20FF0398
:1010F00049E7F61802257301DAD4F3089C46012566
:1011000063465F027F0AE8B23DE7C44670E7012507
:10111000F61A0FE730002025C840691A8E40711E6C
:101120008E4106431500F61852E7002EEDD0002B35
:1011300000D160E78023DB039C4500D25BE7984544
:1011400000D358E7C44656E70C0001259E1BF1E684
:10115000002B80D00124474600200C4013E7002BD1
:1011600000D148E78023DB039C4500D243E7984544
:1011700000D340E70124C4460C403CE7474600202A
:1011800001E7002F02D0BF017F0AFCE60024002700
:10119000F9E6002800D139E7571B3800002D00D1AF
:1011A0009EE68020C0040C000643A4E6002889D0F7
:1011B000511B002D01D1080056E78020C0040643D2
:1011C00059E7C046FFFFFFFBFFFFFF7D41024200E2
:1011D000C30F490A0020120E7E2A03DD9D2A02DD7C
:1011E000094A98187047802000040143952A07DCBB
:1011F0009620821AD1404842002BF3D10800F1E733
:10120000963A9140F7E7C046FFFFFF7F70B5002890
:1012100013D0C317C5185D40C40F280000F040F874
:101220009E2301001B1A962B0FDC082831D00839A9
:101230008D406D026D0AD8B202E000240020002526
:10124000C0052843E407204370BD992B15DC421FDD
:1012500095402A00150011480540560709D00F2671
:101260003240042A05D004356A0102D59F23054087
:101270005B1AAD016D0AD8B2E2E70522121A280006
:10128000D0400A001B3295402A00551EAA41024355
:10129000E0E76D0296206D0AD2E7C046FFFFFFFB34
:1012A0001C2101231B04984201D3000C10391B0A96
:1012B000984201D3000A08391B09984201D300095A
:1012C000043902A2105C40187047C04604030202B1
:1012D000010101010000000000000000931E10B594
:1012E0000C00222B0DD80A2A04D0210000F026F889
:1012F000200010BD0028F8DA2D2340420B70013188
:10130000F4E7002300200B70F3E7C046931E10B5EE
:101310000C00222B0DD80A2A04D0210000F00EF870
:10132000200010BD0028F8DA2D2340420B70013157
:10133000F4E7002300200B70F3E7C046F0B5474602
:10134000CE4680B58BB0E846170042461A4B0500E2
:101350000C0043CB43C243CB43C243CB43C21B78B5
:101360001370BB1E222B22D8631E0026994628002C
:101370003900FEF777FF4246525C4946330001369A
:101380008A552A0005009742F1D90022A255002B68
:1013900007D0A15CE05CA054E1540132013B9A42C9
:1013A000F7DB20000BB0C0BCB946B046F0BD00234F
:1013B00000202370F6E7C046A442000810B5FFF7EE
:1013C000BDFF10BDF0B50500830749D0541E002AAB
:1013D00045D003000326CAB202E00135013C3ED3EA
:1013E00001332A703342F8D1032C30D9FF220A404E
:1013F0001502AD182A04AD180F2C34D92700103F60
:101400003F093E01B4461E001A00103666441560BE
:1014100055609560D56010329642F8D101373F0192
:10142000DB190F270C22274022403C00002A0ED057
:101430003E1FB608B400A4461A001C1D644420C216
:10144000A242FCD103240136B6009B193C40002C7B
:1014500005D0C9B21C19197001339C42FBD1F0BDF3
:1014600003001400C0E72700E2E7C046014B1868FC
:101470007047C046000000200EB400B582B003AB38
:1014800004CB8168019300F051F802B008BC03B0AE
:101490001847C0460FB400B5064983B004AB0868CE
:1014A00004CB8168019300F041F803B008BC04B09C
:1014B0001847C04600000020936810B5013B9360B8
:1014C000002B04DA9469A34207DB0A2905D01368CC
:1014D000581C10600800197010BD00F071F9FBE78E
:1014E000F8B506000F00002B0DD01400D51802E04F
:1014F0000134AC4207D03A0030002178FFF7DCFF1E
:10150000431CF5D1F8BD0020FCE7C04610B514001F
:1015100092680023002A05D0220000F0ABF90022D7
:101520000300A26000221800626010BDF0B54E46B4
:101530004546DE465746E0B58146884614001E0003
:101540009FB0002803D0036A002B00D11FE143465F
:101550009B891B0700D48FE043461B69002B00D1F9
:101560008AE0002306AD6B6120336B761033AB76D7
:101570005346A346874F059603935B461B78002B83
:1015800000D19BE05C4603E063780134002B7DD002
:10159000252BF9D15B46E31A9A465C457BD123782B
:1015A000002B00D18AE0012300225B4206920793C0
:1015B000002200230892099300234332AB54AB6509
:1015C00001339B46013406E05A46C01B82401C0092
:1015D00029680A432A6005223800217801F056F96B
:1015E000631C1E000028EFD12A68D10602D54321D2
:1015F00020306854110702D543212B2068542178EC
:101600002A2967D1059B191D1B680591002B00DA5B
:1016100098E0EB6061782E2900D172E05E4C0322E5
:10162000200001F033F9002806D04023001B83403E
:101630002A68013613432B603178731C0622574801
:101640009B46297601F022F9002800D180E0544B16
:10165000002B67D005AA0092290042464846514B0C
:1016600000E000BF0390039B013327D0039A6B690E
:10167000944663446B6180E74146484600F004FEAF
:10168000002800D16DE7012040421CE05B46E31AD0
:101690009A465C4512D03B0000264746A0464C4681
:1016A000994602E00136B24543D95B463A00200034
:1016B000995DFFF701FF0130F4D1B84643469B899D
:1016C0005B06E0D468691FB0F0BCBB46B246A946D1
:1016D000A046F0BD08003038260009289BD8EA68EB
:1016E000140000E00133A2001219197852001418F6
:1016F000080030380928F5D91E00EC602E2900D0EA
:101700008CE771782A292DD1059BB01C1A1D1B6806
:1017100005926B60002B02DA01235B426B60B178AB
:1017200006007BE70722059B0733934308330593A5
:101730009CE74B466A69A146524444466A61B846F2
:101740001F002CE75B42EB6002231A432A6061E72B
:1017500005AA0092290042464846124B00F0DAFEE4
:10176000039080E708000023303801366B600928B9
:1017700000D953E71A0093009B1871785B001A1880
:101780000800303801360928F5D96A6046E700F0CC
:10179000F7FADCE6CC420008D4420008D842000840
:1017A00000000000E114000810B504001300034A13
:1017B00010680A002100FFF7B9FE10BD00000020EC
:1017C000F8B505000E001400002802D0036A002BB3
:1017D00041D0A369A360A3891B071BD52369002BF4
:1017E00018D0FF22F7B2616916402268D31A9942D5
:1017F0001FDD0133A1680139A160511C2160177000
:1018000062699A421ED0A389DB0701D50A2E19D03E
:101810003000F8BD2100280000F036FD002817D167
:10182000FF222369F7B2616916402268D31A9942F0
:10183000DFDC2100280000F061FB002808D1012333
:101840002268D7E72100280000F058FB0028DFD0ED
:1018500001267642DCE700F093FABAE7030010B500
:101860000A00034908681900FFF7AAFF10BDC04627
:1018700000000020F0B54E46DE4657464546E0B52E
:10188000936883B00C0091460090002B5FD00C232E
:10189000CA5E130763D50B69002B60D04B461F68E7
:1018A000930723D5A36A00269A46B34B0025984692
:1018B000216A002D16D02B00454500D9AE4B3200D1
:1018C0000098D047002859DD4B464A469B68361899
:1018D0001B1A2D1A9360002B39D0A36A216A9A46ED
:1018E000002DE8D13E687D680837E2E7D30762D56E
:1018F0000023B84600209A4600261F00002E45D03F
:1019000000284CD03B00B3469E4200D99B4620683D
:101910002269A5686369904203D9ED18AB4500DDE3
:10192000FEE05B4500DDEEE0A56A5246216A0098C4
:10193000A847051E22DD01207F1B19D04B464A46D1
:101940009B68AA445B1B761B9360002BD6D10020BA
:1019500003B0F0BCBB46B246A946A046F0BD21008C
:10196000009800F091FC00280DD10C23E25E95E771
:101970002100009800F0C2FA0028DFD00C22A35EFC
:1019800040221343A38101204042E1E7082243465D
:1019900094465E68E044002EF8D01B689A463200F8
:1019A0000A21504600F072FF002800D1DBE05346C8
:1019B0000130C71AA6E7002380219A4689008B468A
:1019C000564655462068A36884469846002D5CD04C
:1019D00059460A425DD09A46AB4200D990E0902326
:1019E000DB001A4232D02169431A60690193430037
:1019F0001B18D80FC3185810019B824601335B197E
:101A0000834201D99A461800520500D497E001009C
:101A1000009800F0DBFA8046031E00D1A6E0019A90
:101A2000216900F06DFFA389544A134080221343BB
:101A3000A38143462361019B1A00424494462260DD
:101A40005246A846AA46D31A6261A36052463100A4
:101A5000604600F09FFB4246A8460025A368206828
:101A60009B1A5044A36020604B4642469B68464404
:101A70009B1A4A46936000D169E70C23E25E206816
:101A8000A36884469846002DA2D13E687D68083739
:101A90009AE7226982421BD362699046AA4217D80C
:101AA000802328001B069D4200D335484146FEF79F
:101AB000DDFB4346A26A43439046216A3200009808
:101AC000C047002800DC59E780464346ED1ACBE7C3
:101AD0009846AB4200D9A8464246310000F05AFB76
:101AE0004246A36820689B1A4044A3602060002BF4
:101AF000EBD12100009800F001FA0028E5D03DE785
:101B0000A846AA46A2E75A46514600F043FB5A4669
:101B1000A3685D469B1AA36023685B4423600AE7C1
:101B200051462A0000F036FB236821005B1900981B
:101B3000236000F0E3F9002800D1FCE61EE7020074
:101B4000009800F007FC8046002800D071E7009D57
:101B50002169280000F0C2FA8022A3899343743AD5
:101B60001BB22A600CE7731C1F00CCE6009A0C33F2
:101B700013600C22A35E03E700FCFF7F7FFBFFFFE7
:101B8000FFFFFF7F0020704710B5034A0349044858
:101B900000F058FB10BDC04650000020FD1E00089C
:101BA0000400002041680B4B10B50400994201D09D
:101BB00000F0A4F9A168084B994202D0200000F07F
:101BC0009DF9E168054B994202D0200000F096F99A
:101BD00010BDC04694000020FC00002064010020DD
:101BE00000207047F8B5CE464746344C344B354A52
:101BF0002000002580B51A600423082200215C30F3
:101C000025606560A560656625616561A561E36025
:101C1000FFF7D8FB2C4B2000994663622B4B2C4FCF
:101C20009846A362CC23E5502A4B2B4E6367802352
:101C300008220021C430E550E7622663A566E56608
:101C40002567A567E5672462FFF7BCFB22008823B0
:101C50006832E2504A460433E250424620000433E0
:101C6000E2500433E7500433E6503833E550043390
:101C7000E5500433E550194A5C33E550583BE250D7
:101C80000433E5502D300433E5500822043300219D
:101C9000FF30E550FFF796FB2200F023D032E250F0
:101CA0004A460433E25042460433E2500433E750DC
:101CB0000433E650C0BCB946B046F8BD94000020DD
:101CC00090000020891B0008D5290008012A00087F
:101CD000412A000809000100712A000812000200D0
:101CE000F8B5244B07001B68002B3BD0224E7368CD
:101CF000B468013B03D51BE06834013B18D30C22C8
:101D0000A55E002DF8D120001C4B08220021E360C5
:101D100065662560A560656025616561A5615C30CB
:101D2000FFF750FB6563A563A564E5642000F8BD7B
:101D30003568002D01D02E00D9E7D62138004900A2
:101D400000F044F9041E10D00423D02205602500C1
:101D500043600C300021A0605200FFF733FB346079
:101D60002E00C4E7FFF73EFFC0E70C2330603B6066
:101D7000DCE7C04690000020500000200100FFFF7B
:101D8000036A10B5002B00D010BD044B0362044B56
:101D90001B68002BF8D1FFF725FFF5E7A51B00080E
:101DA000900000207047C0467047C04610B5002024
:101DB000024A034900F046FA10BDC0465000002018
:101DC000851B000810B50020024A034900F03AFACA
:101DD00010BDC04650000020E11B0008F0B5C6460B
:101DE00000B50C228B5E07000C001A073CD44A6831
:101DF000002A5CDDE66A002E32D000223D68216AAE
:101E00003A60DA0457D4002201233800B0470200B8
:101E1000431C65D00C21635EE66A216A5B0706D528
:101E20006368D21A636B002B01D0236CD21A002393
:101E30003800B047431C40D000236360236923600F
:101E4000A389DB044AD4616B3D60002908D02300DC
:101E50004433994202D0380000F040F90023636314
:101E6000002080BCB846F0BD0E69002EF8D00D6889
:101E70000022AD1B0E609B0700D14A69A260002DB5
:101E800004DCEDE736182D1A002DE9DDA36A3200D7
:101E9000984638002B00216AC0470028F2DC402217
:101EA000A38913431BB20120A3814042D9E70A6CE6
:101EB000002A9FDCD4E7626DB0E739680C22A35E8C
:101EC0001D2916D80C4ACA40D20712D500226260DA
:101ED00022692260DB04B6D50029B4D16065B2E77F
:101EE0003B68002B96D01D2B01D0162BD7D13D601F
:101EF000B6E740221343D6E7010040200B6970B5D6
:101F000005000C00002B08D0002802D0036A002B2B
:101F10000AD00C22A35E002B01D1002070BD21004D
:101F20002800FFF75BFFF9E7FFF72AFFF1E7C0465C
:101F300070B5041E18D00F4B1D680369002B08D024
:101F4000002D02D02B6A002B0AD00C22A35E002B9E
:101F500001D1002070BD21002800FFF73FFFF9E705
:101F60002800FFF70DFFF0E7034A0449044800F09A
:101F700069F9EFE70000002050000020FD1E000876
:101F80000400002070B5104E050033680C00002BD3
:101F900015D02100280000F00BFD431C0CD00323BA
:101FA000C41C9C43A04205D0211A280000F000FD6B
:101FB000013001D0200070BD01246442FAE7002105
:101FC00000F0F6FC3060E4E7CC010020F8B5032314
:101FD000CE464746CD1C9D430835060080B50C2DE6
:101FE0001ED20C25A9421DD8300000F0C3FB3A4F89
:101FF0007A68002A1AD0140004E063682200002BDB
:1020000014D01C0023685B1BF7D40B2B27D9611954
:10201000256094425BD051600B6063684B600DE0BB
:10202000002DDFDA0C230020336014E0290030009B
:10203000FFF7A8FF0400431C19D00560300000F032
:102040009BFB200007220B30231D9043C21A9842AD
:1020500001D01B1AA350C0BCB946B046F8BD636896
:10206000944202D05360E9E743467B60E6E77B6831
:102070009846002B24D0444663689846002BFAD13A
:102080002368002199463000A14400F091FC81456D
:1020900016D123683000ED1A2900FFF773FF0130D5
:1020A0000ED023687A685B1923605368002B02D135
:1020B000DAE71A005B689C42FBD100235360BDE75E
:1020C0000C233000336000F057FB0020C3E7796039
:1020D0000B6063684B60B1E7CC01002070B5050070
:1020E000002915D00C1F2368002B23DB280000F0EB
:1020F00041FB274A1368002B05D0A3420BD9216866
:10210000601883422CD028006360146000F034FB18
:1021100070BDA34210D81A005B68002BF9D110687B
:1021200011188C4218D02CD363605460280000F042
:1021300023FBEDE7E418D9E711685018A04214D04A
:102140001FD8216860188342EED118685B68411877
:10215000216063605460E9E723681B181360E5E7BA
:1021600018685B6841182160CDE72068091850188D
:1021700011608342DAD118685B68411811605360BE
:10218000D4E70C2328002B6000F0F6FAC0E7C04625
:10219000D0010020F0B588420AD98B18984207D2A6
:1021A000531E002A03D0CA5CC254013BFBD2F0BDCF
:1021B00005000F2A0AD8561E002AF8D00023CC5C4E
:1021C0001A00EC5401339642F9D1F0E703273E00A0
:1021D0000D430C0003002E402F422DD11500103D61
:1021E0002D09AC462F013F1825681D6065685D60AC
:1021F000A5689D60E5681034DD601D001033BD42A8
:10220000F2D165460F230C2401352D0149191340E5
:102210004519144213D0043B9B0801339B008C5991
:10222000AC5104369E42FAD103231A40AD198919E4
:10223000561E002AC2D1BAE70500561EBEE71A0094
:10224000B9E7C046F8B54746CE46884680B58146D0
:10225000170000267D68BC68013D0DD4A389012BC1
:1022600007D90E22A35E013303D021004846C047A0
:1022700006436834013DF1D23F68002FEAD13000B7
:10228000C0BCB946B046F8BD314B70B50500186802
:102290000C00002802D0026A002A4FD00C22A35E54
:1022A0001A071DD52269002A24D0D90708D5002194
:1022B000A160616900204942A161002A08D070BD77
:1022C0000021980700D461690020A160002AF6D19E
:1022D0001A06F4D540221343A38101204042EEE7C1
:1022E000DA062ED55A0714D4226908210B43A3819C
:1022F000002ADAD1A0218020890080001940814283
:10230000D3D02100280000F039FA0C22A35E226904
:10231000CBE7616B00290AD022004432914204D0FD
:102320002800FFF7DBFE0C22A35E0022626324225A
:1023300093430022626022692260D6E7FFF720FD06
:10234000ACE709222A6040221343A381C5E7C046B7
:1023500000000020F0B5C64607000E00140000B5CE
:1023600000292DD0002A27D000F088FB8046844227
:1023700003D835004308A34210D321003800FFF7EB
:1023800025FE051E0AD0220044450BD83100280046
:1023900000F0B6FA31003800FFF7A0FE280080BC3C
:1023A000B846F0BD31004246280000F0A9FA3100DD
:1023B0003800FFF793FEF1E7FFF790FE0025EDE709
:1023C0001100FFF703FE0500E8E7C046F8B55746E1
:1023D0004E464546DE46E0B51F000A9B92469846AB
:1023E0000A698B6806000C009A4200DA1A0053460C
:1023F0001A604323E35C002B02D0514601320A608D
:102400002268910661D55346524606201B68023366
:10241000136022681100104208D100208146193053
:102420008346E168A344994247DC11004323E35CFF
:102430005A1E934189060AD53020E11843310870AD
:1024400045215A1C615CA2184332023311702200EC
:10245000390030004332C04701301DD053460625B5
:102460001B68E1689C462368A26820692B40042B06
:1024700031D0824239DD00239946121A9144002559
:102480001A3402E001354D452FDA012322003900CC
:102490003000C0470130F5D101204042F0BCBB46BE
:1024A000B246A946A046F8BD01239C465346E568BE
:1024B0001B68E144ED1A4D4524DD01235A463900DD
:1024C0003000C0470130EFD1E6E7062111420ED0BF
:1024D0005A1E9341BBE76346C91ACB43DB170B4037
:1024E00099468242C9DC0029C9DC0020D6E70020D9
:1024F00053468146193083461B68E168A3449942DC
:10250000DBDC92E743232168E35C5A1E9341890692
:1025100092D49CE7F0B54E46994643239C465746D5
:102520004546DE468C446346E0B587B002930C0016
:10253000097E90460700109A002914D00B00583BE2
:10254000DBB2202B48D888489B00C3589F461368AD
:1025500021681D1D606915601B680E0602D44906BE
:1025600000D5DCE018600023029D23614B4621006A
:1025700000933800434605AAFFF728FF01301ED01C
:102580002A00414638002369C847013017D0236824
:10259000E068059E9B071BD5B04219DD19239A46BA
:1025A0000025A24404E0E0680135831BAB420FDD47
:1025B0000123524641463800C8470130F3D101207B
:1025C000404207B0F0BCBB46B246A946A046F0BDAB
:1025D000B042F6DA3000F4E725004223012042350C
:1025E000E154432300222061E254BFE713682168CD
:1025F000181D10600D0602D44D0600D594E01A682F
:1026000016006368002A00DA92E0584A93460A22CC
:1026100003924BE01368206840CB050601D44006C6
:102620007FD41360514B9B466F2900D191E00A2360
:10263000039337E013682500191D11601A684223BF
:1026400001204235E254CCE71368191D11601D6862
:1026500000212800626800F019F9002800D181E00B
:10266000401B6060BDE7202321680B4323604521A8
:10267000782060543E498B46116840C9180603D43F
:10268000580601D53604360C1160DA0702D520222F
:1026900013432360002E03D1202223689343236039
:1026A0001023039343230022E2546368A360002BAA
:1026B00018DB042122688A432260002E12D1029D79
:1026C000002B49D1039B082B1ED0029B5B1B23616F
:1026D0004CE745235821E154244923688B46CBE736
:1026E0002368C4E7039B9A46029D30005146FDF7DC
:1026F000B9FD5B465B5C013D2B7033000600534522
:10270000F3D2039B082BE0D12368DB07DDD5626899
:1027100023699A42D9DC3023013D2B70D5E718801C
:1027200021E73604360C7CE700269E5F320068E71E
:1027300043222D20A054A360002B02DB04239943E5
:1027400021600A239A46094B76429B460A2303934B
:10275000CAE708230393A5E75B4625001B784235AB
:102760002B70AFE760683CE73C400008E04200089F
:10277000F44200087047C0467047C046F0B50C23CD
:10278000CD5E06000C0097B0AA0707D5230047339B
:10279000236023610123636117B0F0BD0E23C95E7E
:1027A00000292BDB6A4600F099F9002824DB8027FA
:1027B000FF0039003000019DFFF708FC002833D0EE
:1027C0008022A38920601343A381F0231B021D40B4
:1027D0008023206167619B019D42DDD130000E2383
:1027E000E15E00F0D3F80028D6D00322A3899343FA
:1027F00001221343A381CFE70C23E55E0F4B2D0687
:10280000ED171D408023DB009C4665442900300005
:10281000FFF7DCFB002807D08022A3892060134348
:10282000A38120616561B7E70C22A35E9A05B3D44A
:102830000322934302221343A381A7E740FCFFFF37
:1028400070B50C001E000E23C95E150096B000295D
:1028500014DB6A4600F042F900280FDBF0230199EF
:102860001B021940084B9C4661444B42594180234E
:10287000DB00002031602B6016B070BDA389002101
:102880001B06F4D54023F4E700E0FFFF70B5CCB29F
:1028900083070DD0531E002A0FD0032504E001301A
:1028A000284206D0013B08D30278A242F7D170BD7E
:1028B0001300032B03D8002B14D10020F7E7FF22CD
:1028C0000A401502AD182A040B4EAD1803E0043B74
:1028D0000430032BEFD9026808496A40511891432C
:1028E0003142F4D0C31802E001309842E5D00278BA
:1028F000A242F9D1DBE7C04680808080FFFEFEFE69
:10290000F0B505000F2A31D903273E000D430C0016
:1029100003002E402F4234D11500103D2D09AC4646
:102920002F013F1865685D60A5689D60E568DD6002
:10293000256810341D601D001033BD42F2D165467C
:102940000F230C2401352D01491913404519144258
:102950001AD0043B9B0801339B008C59AC510436C0
:102960009E42FAD10323AD1989191A40561E002A36
:1029700006D00023CC5C1A00EC5401339642F9D106
:10298000F0BD0500561EF4E71A00EFE7002370B50E
:10299000064C05000800236000F093FB431C00D0A8
:1029A00070BD2368002BFBD02B60F9E7D401002019
:1029B000002370B5064C05000800236000F060FBA2
:1029C000431C00D070BD2368002BFBD02B60F9E7BF
:1029D000D401002070B50C000E25495F00F06AF8A4
:1029E000002803DB636D1B18636570BDA389024A71
:1029F0001340A381F9E7C046FFEFFFFF00207047B7
:102A0000F8B50C001F000C23C95E05001600CB05AD
:102A10000AD40A4B320019402800A1810E23E15E3E
:102A20003B0000F083F8F8BD0E23E15E0022022394
:102A300000F068F80C23E15EEBE7C046FFEFFFFF14
:102A400070B50C000E25495F00F05CF8431C07D000
:102A50008023A2895B0113431BB26065A38170BD13
:102A6000A389024A13401BB2F8E7C046FFEFFFFFFD
:102A700010B50E23C95E00F00BF810BD0B1F1B68CC
:102A8000181F002B00DB70470B58C018FBE7C0462F
:102A9000002370B5064C05000800236000F006FB1B
:102AA000431C00D070BD2368002BFBD02B60F9E7DE
:102AB000D401002070B50400080011001A000023A2
:102AC000054D2B6000F0C9FA431C00D070BD2B6887
:102AD000002BFBD02360F9E7D4010020002370B560
:102AE000074D0400080011002B6000F0E5FA431CBC
:102AF00000D070BD2B68002BFBD02360F9E7C046E7
:102B0000D401002070B50400080011001A00002351
:102B1000054D2B6000F0CDFA431C00D070BD2B6832
:102B2000002BFBD02360F9E7D401002070B504002E
:102B3000080011001A000023054D2B6000F080FAF8
:102B4000431C00D070BD2B68002BFBD02360F9E73D
:102B5000D40100200323174AC020516B0B43536359
:102B6000A023DB051A6814490A401A608022D9683C
:102B7000D2040A43DA605A6A10490A405A62104A7B
:102B80001168814311604021D0680143D1600C215C
:102B90001A688A431A600422D9680A43DA601A68FC
:102BA00008490A401A608022D96852000A43DA6054
:102BB0007047C04600100240FFFFFFF3FFFF0FFF0A
:102BC00000040050FFFCFFFFA0230D4ADB0518693D
:102BD0001169C043C94310B502241A6980048908E9
:102BE0002140D243C00F084304211B6952000A4010
:102BF000DB43104308225B081340184310BDC04656
:102C00000004005037B50400808A0A210530FDF722
:102C10002DFB1F23E35645B2AB4213D00021042005
:102C200000F064FB154800F0EEFB0A22694628001C
:102C3000FEF76CFB0021042000F058FB684600F012
:102C4000E2FBE577651CEA7FA37D9A4214D003215D
:102C5000042000F04BFB094800F0D5FB0A2269462E
:102C6000A07DFEF753FB0321042000F03FFB6846E4
:102C700000F0C9FBA37DEB7737BDC046C04000081C
:102C800070B50400FFF7A0FF060001F087F90123EB
:102C9000320005001A401E4202D00023237770BD87
:102CA000710705D523776423E2830134E377F6E7E0
:102CB000B30727D5636A002B0ED1A38A2A490A33AA
:102CC0001A1C9BB28B4200D90A1C90B2A282656288
:102CD000A56200F09BFFE2E7FA22C31AD2009342FA
:102CE000DDD99622A36A5200C31A9342D7D9A38A88
:102CF0001D490A331A1C9BB28B4200D90A1C90B2A0
:102D0000A282E5E7082332001A401E4229D0636AF6
:102D1000002B11D1A38A0A3B1A1C9BB2C82B00D2EC
:102D2000C82290B2A2826562A56200F06FFF0A23FA
:102D30001E42B4D0A560B2E7FA22C31AD200934271
:102D4000F5D99622A36A5200C31A9342EFD9A38AF7
:102D50000A3B1A1C9BB2C82B00D2C82290B2A28296
:102D6000E2E762629BE7C04698080000F0B593B0C6
:102D700000F00EF901F0A4F801F0E2F802235B4A3A
:102D80000125516B5A4E0B4353630322336806AC43
:102D90009343336033682B4333607368AB43736092
:102DA00000F092F900F010FC00F084FDFFF7D2FE75
:102DB00000F05EFB02A800F0C9FFE120800000F0F7
:102DC000B1FE262002AB1A22C0180021FEF7FAFA43
:102DD00001F0E4F8069001F0E1F8606001F0DEF83F
:102DE000A06001F0DBF8E06001F0D8F8206100F0AD
:102DF00007FF112302AA9B186422A0826577DA7765
:102E000001F0CCF863680500C31A632B13D9394B62
:102E1000188800F017FE1423E15E0200208302A848
:102E200000F09CFF237FA0755A1E93415B4218401F
:102E300000F034FD65602368EB1AC72B13D901221B
:102E400073690A2153407361208BA77D0530FDF71C
:102E50000DFA294B01003A001800FEF71BFB022077
:102E600001F090F82560A368244AEB1A934202D936
:102E700000F016FFA560E368EB1AC72B2DD9277F5A
:102E8000637FBB4210D0002F0DD13900380000F015
:102E90002DFA1B4800F0B7FA3800032100F026FA9B
:102EA000184800F0B0FA6777208B0A210530FDF74B
:102EB000DDF9A27F83B263839A4208D0C3B21A00BD
:102EC00001210020019300F05BFA019BA377002F02
:102ED00002D02000FFF796FEE5602369EB1A632B12
:102EE0008ED92000FFF7CCFE256189E70010024053
:102EF0000004005066020020C54000085FEA0000A0
:102F0000CC400008D74000080B480C490C4A521A24
:102F100005D003680B6004300431043AF9D1094844
:102F200009490022091A03D0026004300439FBD198
:102F3000064880470648004710430008000000206C
:102F400074000020740000207C030020153000086D
:102F50006D2D000870477047704770477047704785
:102F600070477047704770477047704770477047A9
:102F70007047704770477047704770477047704799
:102F80007047704770477047704770477047000040
:102F900038211A4A10B593680B40182B12D00FD85D
:102FA000082B26D0102B10D00724536814485B0B35
:102FB000116823409B001B58C90A2140CB400EE0FA
:102FC000202BF1D180231B0209E0D368DB0712D448
:102FD00053680B491B045B0F9B005B585B009268B6
:102FE00008491205120F920052580748D340036057
:102FF00010BD064BF3E7064BF1E7C0460010024058
:10300000E4400008044100085C00002000366E0126
:10301000006CDC020749084A4B6812681B0C1B0451
:10302000134380229201134380224B60034B12050D
:103030009A60704700100240040FFF1F00ED00E08F
:1030400070B50E0014000025A54201DB200070BD04
:10305000705D00F06DF80135F6E737B500200C0023
:10306000824209DD6B46DD1D280000F07FF8002854
:1030700003D001202B7823703EBD01204042FBE7A6
:103080000300084A0849106810B5C3188B4206D9D6
:10309000FEF7ECF90C2303600120404210BD1360E1
:1030A000FCE7C046600000200004002001204042F0
:1030B000704701204042704780239B0100204B60F5
:1030C00070470120704700008022144BD201196C18
:1030D000F0200A431A640122596B0A435A63002301
:1030E0000F4AD360A023DB05196881431960A02132
:1030F000186801431960196A0A4801401962882159
:10310000186A490101431962CC235B009360064BA6
:10311000D3608022054B12051A60704700100240F0
:1031200000380140FF00FFFFAC20000000E100E09C
:103130003F2110B5094A0A4C137801330B4021781E
:103140009942FCD01178074CC9B2605413708023A7
:10315000054AD1680B43D36010BDC0461B02002056
:103160001A0200201C0200200038014010B50A4A53
:1031700003001478094A002011788C420AD0117893
:103180000748C9B2415C012019703F21137801330F
:103190000B40137010BDC046D9010020D80100209B
:1031A000DA010020174B30B51A6892060FD53F217F
:1031B000154C5868227801320A4014490978914226
:1031C00005D02178124DC9B2C0B268542270802057
:1031D0001A68024208D00F4A0F4914780A789442BC
:1031E00003D1DA688243DA6030BD0A780B48D2B284
:1031F000825CD2B25A603F220B78013313400B70CD
:10320000F2E7C04600380140D9010020D801002073
:10321000DA0100201B0200201A0200201C020020FC
:1032200030235843011C0139FDD17047012270B58C
:103230001D4C2025636993436361A023DB05596915
:10324000A943596159696D19A94359615969174DC4
:1032500029405961104202D061690A4362618207C4
:1032600003D5202259690A435A61430705D5A02294
:103270004023D20551690B435361000706D5A022B4
:103280008023D2055169DB010B4353610225636939
:10329000C8202B436361FFF7C3FF6369C820AB43BA
:1032A0006361FFF7BDFF70BD00140050FFBFFFFF5B
:1032B00010B5022204000C4B002910D059690A43B2
:1032C0005A612009FFF7B2FF6420FFF7A9FF0F2022
:1032D0002040FFF7ABFF6420FFF7A2FF10BD596944
:1032E00091435961EDE7C0460004005010B5032931
:1032F00011D809280FD84A23032901D0064B5B5C5B
:10330000C01880235B421843C0B20021FFF7D0FFF2
:103310006420FFF785FF10BD4441000810B501216E
:10332000FFF7C6FF6420FFF77BFF10BDF8B506006E
:103330000D001700092A00D9002729003000FFF7E7
:10334000D5FF06235F430D4C0135385DE419FFF7C7
:10335000E5FF6078FFF7E2FFA078FFF7DFFFE9B253
:103360003000FFF7C3FFE078FFF7D8FF2079FFF7C1
:10337000D5FF6079FFF7D2FFF8BDC046474100088E
:10338000F8B5070000200C0015000A26FFF7AEFF75
:10339000013E2020F6B2FFF7C1FF002EF8D1611CDC
:1033A0003000C9B2FFF7A2FF0A36013E2020F6B274
:1033B000FFF7B4FF002EF8D10A212800FCF752FFD6
:1033C000B81DCAB2C0B22100FFF7B0FF092D19D94C
:1033D0000A212800FCF7C0FEC6B20A213000FCF723
:1033E00041FFF81CCAB2C0B22100FFF79FFF632D56
:1033F00008D90A213000FCF7AFFE2100C2B2380024
:10340000FFF794FFF8BD10B504002078002800D124
:1034100010BD0134FFF782FFF7E770B50C000728F5
:1034200016D84023C000184300212500C0B2FFF782
:103430003FFF0835207801210134FFF739FFAC4206
:10344000F8D180200021FFF733FF6420FFF7E8FE6A
:1034500070BD000010B50024044BE100E0B2C918B3
:103460000134FFF7DAFF082CF6D110BD83410008C4
:10347000F8B523234B4A0C27516B02250B435363AA
:103480000422F0200326484B84461968474CB94370
:10349000114319605968A9435960196A8143196237
:1034A0001968EF38B1430143196059688143596085
:1034B000196A0E3081431962A023DB0518683C4964
:1034C00008408021C90001432020196059688143C8
:1034D0005960196A3748014019621868364908402E
:1034E0008021490101434020196059688143596096
:1034F000196A32480140196219680C408021490557
:103500002143196059682E4C21405960596A2D4C4D
:103510000140596223683220BB431A43226062464D
:103520006368AB436360236A9343236200F02AFD20
:1035300063693000AB436361FFF778FEC820FFF793
:103540006FFE3000FFF772FEC820FFF769FE300003
:10355000FFF76CFEC820FFF763FE2800FFF766FE4A
:10356000C820FFF75DFE00212A20FFF7A1FEC8203A
:10357000FFF756FE38000021FFF79AFEC820FFF73C
:103580004FFE00210120FFF793FEC820FFF748FE01
:1035900000210620FFF78CFEC820FFF741FEFFF751
:1035A00059FFF8BD0010024000140050FFFFFFCF8C
:1035B000FFF3FFFFFFFF0FFFFFCFFFFFFFFFFFF056
:1035C000FFBFFFFF0004005080230120404A1B0181
:1035D000116CF0B50B431364536B03240343536323
:1035E000A0230225DB0519687027A143196019681B
:1035F0000C3429431960196AA14319620D211C6A10
:10360000214319622F21334B334C9962DC62DE690E
:10361000BE43DE616026DF693E43DE610026DE6375
:103620001F6A0136FF363E431E6208261F683E436E
:103630001E6080265F6C36023E435E648023166CFB
:103640009B0233431364254BC5269962DC621C68D8
:10365000B60004431C608023146CDB022343136414
:103660001F4B204C99622049D96220498B59234035
:103670008B518023DB030B60136C184310643020E4
:10368000536B1D431A4B55631A6882431A60DA68FC
:103690008243DA60174B18481A6E1D1D02401A66E5
:1036A0008022186E520202431A660422E86F104309
:1036B000E867186890431860586802435A60C1224E
:1036C00092008B5823408B5040230B60F0BDC046C6
:1036D00000100240002C0140FFFF000000440140A8
:1036E00000480140FFFF00FFFC08000000E100E08F
:1036F0000004005000180240FFFFFCFF0122174B9E
:1037000010B5196911421FD01969154C91431961FF
:103710001968914319602178C8B2002915D1217820
:103720008918C9B221700F495862D96219681143CA
:103730001960D9681143D9600B4B1968914319601E
:10374000586219680A431A6010BD04210748C46F03
:103750002143C167D9689143D960F5E7004801402A
:103760005D020020FC080000002C0140041802400B
:10377000042070B5394CE368034263D0384B394DAF
:103780005A6A2B8892B23849D31A9BB20B802A808E
:10379000364A0025D36F8343D3670122344B1D7013
:1037A000344B186890431860AF2080005D62D86287
:1037B000186810431860186990431861D86802436C
:1037C000DA600A882C4B9A4238D90A882B4B9A42E5
:1037D00034D82B4E0A8830782A4D4300EA52032110
:1037E0000130FCF729FE31706B882988AA8899423C
:1037F00029D3934204D20B1C914200D9131C9BB2D3
:103800000322214D214E29884A43D3189B109BB295
:103810002B802A8833889A4210D01D4B28881D4A55
:103820001B786421D35C5843FCF796FC2B889BB231
:103830003380194BD8632D30FF30D8620423E268FF
:103840001343E36070BD914205D2191C934200D925
:10385000111C8BB2D4E70B00D2E7C046001802401F
:10386000004401406202002060020020041802406F
:103870005D0200200048014033210000EC2C0000D4
:103880005C020020640000206C0000206A00002020
:103890005E020020C3410008002C0140322804D8F9
:1038A0000022024B1870024B1A8070475E02002003
:1038B0006A0000200122324B70B5596B314C0A432B
:1038C0005A638422196C52030A43A0211A64C0224D
:1038D000C9050868120202430A608022196B52036C
:1038E0000A431A631A6B28490A401A63A0231B066D
:1038F000236123610023E360043363617C33A362AB
:103900008023A2681B061343A360A368002BFCDB83
:103910000126A36802203343A36000F033FB042395
:103920006268C32113436360FF23184D89006A58FE
:103930009A43BF3B13436B5080235B012B60144CB5
:10394000144BA362A16A144B89191868FCF704FC94
:103950000A21FCF701FC0138E062E3683343E360CD
:1039600023681E43266080231B032B60C421802212
:1039700089006B58D2051B021B0A13436B5070BDA4
:103980000010024000240140FFFFEFFF00E100E0D3
:1039900000200040BF1200005C00002070B51B4CEE
:1039A00023685B0727D51A4E226C3078194D4300E7
:1039B0005A5303210130FCF73FFD31706B88298891
:1039C000AA88994218D3934204D20B1C914200D981
:1039D000131C9BB20722104908884243D318DB10FE
:1039E0009BB20B8004232360A268033B9A43A2602E
:1039F000A2681343A36070BD914205D2191C934283
:103A000000D9111C8BB2E5E70B00E3E7002401406D
:103A1000640200206E000020660200200121074B96
:103A200010B51A690A4207D0042205488468224367
:103A300082601A698A431A6110BDC04600200040A6
:103A400000240140C122030070B5DC2052009342E3
:103A500018D30F4AD238934214D801220D4891004E
:103A6000455A0E189D420ED2013A920081184C8898
:103A7000115A7288C81A121B5043491BFCF7F6FBF7
:103A8000201800B270BD01322B2AE8D10020F9E7DE
:103A9000990F0000F641000810B50E4B0E4C0F4A6E
:103AA00019000433185908609342F9D180210C4A57
:103AB00009035069014351610A49C96F19608023A4
:103AC0005B0211691942FCD1BFF36F8FBFF34F8FB7
:103AD00010BDC046807F00086483FF17FC7F00088C
:103AE00000200240E80200200B4B0C4A59690A43AF
:103AF00001215A610A4A4942116080225969120320
:103B00000A435A618022520219691142FCD1BFF363
:103B10006F8FBFF34F8F70470020024002000001FB
:103B2000807F000810B5154B1549164A1C00246803
:103B300004335C509342F9D13F23134A134C11884C
:103B4000A14207D0124A01331180124A1180124A51
:103B5000137010BD013BDBB2023AFF2BEFD1012203
:103B60000B4B18800B4B18800C4B18800A4B1A70AB
:103B70000B4B1A7000220B4B1A70EAE7807F00088B
:103B80006483FF170080000866030020FFFF000029
:103B9000760300207403002071030020E802002057
:103BA0007203002070030020F8B50F4B0F4E1D88E4
:103BB0003388AB4217D00E4C0E4F23783F2B09D9D8
:103BC0000023012223700C4BFF211A7038007F3232
:103BD000FDF7F8FB237835805A00BD5201220133EE
:103BE0002370064B1A70F8BD760300207403002082
:103BF00071030020E80200207003002072030020FF
:103C0000014B18887047C04676030020014B18808E
:103C10007047C0467603002001221A4B10B593432B
:103C2000194A1800110080301C002468043310C1A8
:103C30008342F9D10123134372B68022134C5202FE
:103C400021691142FCD1124AA260124AA260BFF35C
:103C50006F8FBFF34F8F9847012322691A42FCD020
:103C600022691343236163690B4A13406361802314
:103C700062691B061343636162B60022074B1A7028
:103C800010BDC046E93A000868020020002002404A
:103C900023016745AB89EFCDFDFFFFFE70030020D8
:103CA00070B5FFF781FF204D2B78002B3AD01F4BCA
:103CB0001B78002B01D0FFF7AFFF01221C4B934371
:103CC0001C4A1800110080301C002468043310C105
:103CD0008342F9D172B68023174C5B0221691942E5
:103CE000FCD1164BA360164BA3606169154B0B43C7
:103CF0006361BFF36F8FBFF34F8F0126324390474D
:103D000023693342FCD023690F4A1E43266163694D
:103D100013406361802362691B061343636162B6CB
:103D200000232B7070BDC04672030020700300207A
:103D3000993A0008680200200020024023016745EC
:103D4000AB89EFCD01000001FEFFFFFE0023036001
:103D50004360836080235B0083817047F0B504007B
:103D600087B0881A17000E00FDF750FA637B051C18
:103D700038000293FDF74AFA029B0190002B2BD1E9
:103D8000A168FDF75DF84649FCF74EFD4449FCF794
:103D900017FF4449FCF714FF0199FCF7A5FB0490B9
:103DA0003000FDF733FA40490390FCF79DFB04997E
:103DB000FCF75AFB061E11D00123FC216068237317
:103DC0008905FCF7FDFE60600020019B2560A36073
:103DD0000023637307B0F0BD0020D7E73349281CE8
:103DE000FCF742FB002846D026733149281CFCF71B
:103DF000E7FE2B490590281CFCF7E2FE6168FCF702
:103E000073FB2C49061CFCF72FFB002837D12749F0
:103E1000301CFCF73DFB002800D0244E6660301CAF
:103E20002549FCF7CDFE029B0026071C002B07D17D
:103E30002168281CFDF704F81949FCF7F5FC061C5D
:103E4000391C0598FCF750FB1C49071C301CFCF77B
:103E5000B7FE011C381CFCF747FB1349FCF7E4FCD8
:103E6000FC218905FCF740FBFCF726FBC6B2002EBF
:103E700007D10120A9E7237B002BB6D0A4E70D4E84
:103E8000CCE704990398FCF7EFFA002802D001234D
:103E90002373EEE7301C132E00D91320C0B294E731
:103EA000CDCCCC3D0000A0400000A041000020414E
:103EB0000AD7233E000020C18FC2F53CCDCCCC3CBC
:103EC0000123194A11680B431360184B184A5968AB
:103ED0001140802212020A435A608022196852005F
:103EE0000A431A608022D20019681142FCD0802255
:103EF000196852040A431A60802292041968114218
:103F0000FCD09A680B490A409A600722996891434D
:103F1000053A0A4338219A609A680A40102AFBD170
:103F2000054B064A1A60704700200240001002400C
:103F3000FF1FFFFFFF80FFFF5C000020006CDC0222
:103F4000FA21094B10B518688900FCF705F9002221
:103F5000064B013858609A6007321A60044A136AA7
:103F60001B021B0A136210BD5C00002010E000E081
:103F700000ED00E0024A1368013313607047C04649
:103F800078030020044A116813685B1A834200D347
:103F9000704730BFF8E7C04678030020014B18682F
:103FA0007047C04678030020F8B5C046F8BC08BC8E
:103FB0009E467047F8B5C046F8BC08BC9E467047A0
:103FC000DC090008C2080008EC08000852090008D3
:103FD000EC08000886090008EC08000852090008EF
:103FE000C2080008C2080008860900085209000833
:103FF000D8080008D8080008D80800089009000868
:10400000C2080008C2080008EC080008140A0008EA
:10401000EC08000886090008EC080008140A0008EB
:10402000C2080008C208000886090008140A00082F
:10403000D8080008D8080008D8080008D2260008C8
:10404000D8250008D8250008D8250008D82500085C
:10405000D8250008D8250008D8250008D82500084C
:10406000D8250008D825000834260008EC250008CB
:10407000D8250008D8250008D8250008D82500082C
:10408000EC250008D8250008D8250008D825000808
:10409000D82500084E2500081426000866260008CA
:1040A000D8250008D825000848260008D82500088B
:1040B00014260008D8250008D8250008E0260008A6
:1040C000202020200025642C25640A0054CC733D58
:1040D000302020202049005057523D302020202001
:1040E0004F00000000093D0000127A000024F40097
:1040F0004086510100366E0100093D0000093D0077
:1041000000093D0000000000000000000000000069
:10411000000000000000000000000000000000009F
:104120000000000001000000020000000300000089
:104130000400000006000000070000000800000066
:104140000900000000400A000102030405200320CA
:1041500020022006060203070706060207070503DA
:1041600004022020050006060707050006060307CF
:1041700005010105200020000602030705000602D4
:10418000070705070F1F1F1F1F1F1F1F1F1F0000EF
:104190000000001C1E1F1F1F1F1F1F1F1F1F1F1F90
:1041A0001F0F0700000000001F1F1F1F1F1F1F1FE2
:1041B0001F1E1C1F1F1F0000001F1F1F00000000EC
:1041C0001F1F1F6455514E4C4A48474544424140C9
:1041D0003F3D3C3B3A393837363534333231302F76
:1041E0002E2D2C2B2A29282725242322201F1D1C75
:1041F0001A1816130F009A0F64007F0F96005F0FB6
:10420000C800380FFA000B0F2C01D50E5E01970E77
:104210009001510EC201010EF401A80D2602450DB8
:104220005802DA0C8A02660CBC02EA0BEE02680B3A
:104230002003E10A5203560A8403C909B6033B0965
:10424000E803AE081A0423084C049B077E041707F2
:10425000B0049806E20420061405AD0546054105A4
:104260007805DC04AA057D04DC0525040E06D403CC
:104270004006880372064303A4060203D606C7025B
:10428000080791023A075F026C0732029E07080294
:10429000D007E2010208BE0134089E0166088101D0
:1042A000980800003031323334353637383961629E
:1042B000636465666768696A6B6C6D6E6F70717256
:1042C000737475767778797A00000000232D302B8F
:1042D00020000000686C4C0065666745464700009A
:1042E000303132333435363738394142434445462C
:1042F00000000000303132333435363738396162EE
:08430000636465660000000023
:044308003501000873
:04430C00090100089B
:10431000040000200000000094000020FC000020A9
:104320006401002000000000000000000000000008
:10433000000000000000000000000000000000007D
:10434000000000000000000000000000000000006D
:10435000000000000000000000000000000000005D
:1043600000000000030000009400002000127A000A
:104370008003002010271027102710271027F00097
:04438000F000F00059
:0400000508002F09B7
:00000001FF
